:020000040000FA
:040000000DEF00F010
:0400080096EF06F079
:06001800FF002DEF08F0CF
:10080000000A28A03B00496E100E49640AEF04F06C
:100810000CEF04F011EF04F0000E1AEF05F01AEFE0
:1008200005F03F01BA9149B018EF04F01AEF04F057
:100830001FEF04F0BA8324EF04F024EF04F0BA931E
:1008400024EF04F024EF04F0030E4918D8B42BEF82
:1008500004F02DEF04F038EF04F0040E4918D8A48A
:1008600034EF04F036EF04F03DEF04F038EF04F01D
:10087000BA8593EF04F093EF04F0070E4918D8B44B
:1008800044EF04F046EF04F051EF04F0080E49186D
:10089000D8A44DEF04F04FEF04F056EF04F051EF01
:1008A00004F0BA8593EF04F093EF04F00B0E4918AF
:1008B000D8B45DEF04F05FEF04F06AEF04F00C0EC3
:1008C0004918D8A466EF04F068EF04F06FEF04F065
:1008D0006AEF04F0BA8593EF04F093EF04F00F0E83
:1008E0004918D8B476EF04F078EF04F083EF04F001
:1008F000100E4918D8A47FEF04F081EF04F088EFC0
:1009000004F083EF04F0BA8593EF04F093EF04F062
:10091000BA9593EF04F093EF04F093EF04F093EFA4
:1009200004F093EF04F0050E4918D8B49AEF04F0E0
:100930009CEF04F0A7EF04F0060E4918D8A4A3EF2B
:1009400004F0A5EF04F0ACEF04F0A7EF04F0BA87D1
:1009500002EF05F002EF05F0070E4918D8B4B3EF27
:1009600004F0B5EF04F0C0EF04F0080E4918D8A465
:10097000BCEF04F0BEEF04F0C5EF04F0C0EF04F0EC
:10098000BA8702EF05F002EF05F00D0E4918D8B452
:10099000CCEF04F0CEEF04F0D9EF04F00E0E4918BE
:1009A000D8A4D5EF04F0D7EF04F0DEEF04F0D9EFD0
:1009B00004F0BA8702EF05F002EF05F00F0E4918B8
:1009C000D8B4E5EF04F0E7EF04F0F2EF04F0100E16
:1009D0004918D8A4EEEF04F0F0EF04F0F7EF04F0BC
:1009E000F2EF04F0BA8702EF05F002EF05F0BA97D4
:1009F00002EF05F002EF05F002EF05F002EF05F05F
:100A000002EF05F0080E496408EF05F00AEF05F063
:100A10000FEF05F0BA8914EF05F014EF05F0BA975F
:100A200014EF05F014EF05F0BA8117EF05F0010E91
:100A30001AEF05F01200550E486E3D0178B123EF14
:100A400005F025EF05F02DEF05F03901A2AF2BEFF2
:100A500005F02DEF05F032EF05F03901A29F6F0090
:100A6000A8F548F03D0177A938EF05F03AEF05F019
:100A700077EF05F079A53FEF05F041EF05F047EF7F
:100A800005F079953901A3933D0178856C6976A9C4
:100A90004CEF05F04EEF05F058EF05F0769939016F
:100AA000A3953D017885030E20EC06F068EF05F074
:100AB0003901A3A15EEF05F060EF05F068EF05F0E6
:100AC000A391010E20EC06F068EF05F068EF05F049
:100AD0003D0179A76EEF05F070EF05F0A0EF05F08E
:100AE00079973901A393A0EF05F0A0EF05F079A75E
:100AF0007CEF05F07EEF05F086EF05F07997390180
:100B0000A393000E20EC06F0A0EF05F0600020F1AA
:100B10005DF079A58EEF05F090EF05F099EF05F007
:100B2000000E796F3901A3933D0178856C6999EFC7
:100B300005F0020E20EC06F0A0EF05F0A0EF05F0A6
:100B40003D017399120092EC08F0900E496E110E5F
:100B50004A6E860E4B6E110E4C6E060E4D6EE8EC14
:100B600006F0B3EF05F03F01BA91B7EF05F0D28F71
:100B7000D3EC08F0BEEF05F0BEEF05F03F01BBB1CE
:100B8000C4EF05F0C7EF05F0010EC8EF05F0000E49
:100B9000FF0A526EBB515218FE0B5218BB6FD1EFB9
:100BA00005F0030E586E5850D8A4D9EF05F0DBEFCE
:100BB00005F0DFEF05F0BEEF05F0BEEF05F0FF0E2C
:100BC000526EFF0E536E5850546E556A5250542652
:100BD00053505522590E5424D96E000E5520DA6E0A
:100BE000DF5036EC07F0600034F156F0600038F169
:100BF00057F057BE00EF06F0FEEF05F004EF06F0E9
:100C00000FEF06F00FEF06F0600058F149F06000BA
:100C10005CF14AF05804D3EC07F00FEF06F05806E9
:100C20005850D8A416EF06F018EF06F0DFEF05F0E5
:100C3000BEEF05F0BEEF05F0BEEF05F00DEF00F0E2
:100C4000476E82EF06F0010E456E95EF06F04CEF11
:100C500006F0600074F146F057EF06F030EF06F052
:100C60004650010D010EF324D96E000EF420DA6E09
:100C7000600077F1DFFF462A3F0E466442EF06F040
:100C800044EF06F057EF06F0000E466E57EF06F001
:100C900057EF06F057EF06F04550000AD8B430EF92
:100CA00006F0010AD8B429EF06F030EF06F0000E86
:100CB000456E95EF06F03D0178AB61EF06F063EF0E
:100CC00006F070EF06F04650010D010EF324D96EC8
:100CD000000EF420DA6EDF506B6F462A70EF06F0DC
:100CE0003F0E466476EF06F078EF06F095EF06F0DB
:100CF000000E466E95EF06F095EF06F095EF06F0C4
:100D000095EF06F04750000AD8B423EF06F0010A29
:100D1000D8B45BEF06F0030AD8B44CEF06F0010A32
:100D2000D8B495EF06F095EF06F01200390193A5BF
:100D30009CEF06F09EEF06F0A9EF06F0A3A5A3EF47
:100D400006F0A5EF06F0A9EF06F01BEC05F0E7EFC3
:100D500006F092AFAEEF06F0B0EF06F0BBEF06F094
:100D6000A2AFB5EF06F0B7EF06F0BBEF06F01BEC55
:100D700005F0E7EF06F093A3C0EF06F0C2EF06F030
:100D8000CDEF06F0A3A3C7EF06F0C9EF06F0CDEF55
:100D900006F01BEC05F0E7EF06F093A1D2EF06F0AA
:100DA000D4EF06F0E7EF06F0A3A1D9EF06F0DBEFF2
:100DB00006F0E7EF06F01BEC05F0E7EF06F0E7EFD3
:100DC00006F0E7EF06F0E7EF06F0E7EF06F01100B8
:100DD000000E506E4D50505CD8A0F1EF06F0F3EFCE
:100DE00006F0F7EF06F035EF07F035EF07F002D821
:100DF00004EF07F00500FA6E4950FD6E4A50FE6E92
:100E0000F850FF6EFA5012001A0E4F6E5E0E4E6EC4
:100E10006E0EE82EFED74E2EFCD74F2EFAD700D0FE
:100E200002D81DEF07F00500FA6E4B50FD6E4C50D6
:100E3000FE6EF850FF6EFA5012001A0E4F6E5E0EE4
:100E40004E6E6E0EE82EFED74E2EFCD74F2EFAD7E2
:100E500000D0502A4D50505CD8A031EF07F033EF4E
:100E600007F0F7EF06F035EF07F01200516E515022
:100E700003EC04F00009D8A440EF07F042EF07F0BC
:100E800046EF07F04D684E6876EF07F0060E506E9D
:100E9000130E4F6EAE0EE82EFED74F2EFCD7502EFF
:100EA000FAD7170EBBEC08F058EF07F058EF07F031
:100EB000A1EC08F00009D8B460EF07F062EF07F08A
:100EC00058EF07F064EF07F0AEEC08F0FF0E49149E
:100ED000416E030E4A14426ECDEC08F0600004F13E
:100EE0004DF0600008F14EF076EF07F01200000EB2
:100EF0003F01BA6F000EBB6F000EBC6FE00EC26FF9
:100F0000FE0EC36FE70EC46FE70E3A01606FFE0E70
:100F1000506FE00E406F000E816F000E516F000E9B
:100F2000416F000E616F000E426F000E526F180E7F
:100F3000626F436953696369140EE46F210E136F86
:100F4000220E146F130EE36F1200000E3E01DE6FCF
:100F5000000EDF6F000EE06F000EE16F000EE46F19
:100F6000000EE56F000EEA6F000EEC6F000EF16FE1
:100F7000E80EF36F030EF46F000EF56F000EF66FC0
:100F8000000EF76F000EF96F000EFA6F400EFB6F48
:100F9000000EFC6F000EFD6F000EFE6F3F0EFF6F28
:100FA000840EF86F12004D6E3F0E4D64DAEF07F0BD
:100FB000DCEF07F0E0EF07F0FFEF07F0FFEF07F0DF
:100FC0004D50020D010EF324D96E000EF420DA6E9E
:100FD0004A50DF6E4D504B6E4C6AD8904B364C36B3
:100FE000010E4B26000E4C22010E4B24D96E000E32
:100FF0004C20DA6E600027F1DFFFFFEF07F01200F0
:10100000D20E3D016F6F000E706F000E716F000EFB
:10101000726F800E746F000E756F000E7B6F6C69BF
:10102000900E736F3901A29FA391A3953D0176990C
:101030003901A3933D01799579973901928F938175
:1010400093853D017681390193833D017A857A87C5
:10105000000E796F000E766F1200AC0EF66E110E58
:10106000F76E000EF86E00EE59F010EE05F0090074
:101070006F00D7FFEEFFE550E150F9E100EE01F01F
:10108000460EEE6AE806FDE1080ED56E000ED66E3D
:10109000000ED76E000EF86E0001A3EF05F0400EB3
:1010A0003F01B96F5F0EB76F000EB66FB6516F009C
:1010B000DCFE49F04A6A600024F14AF0496A4910AE
:1010C000436E4A50446E3901A39F900E3F01B86FA2
:1010D0001200200E3901D96F000EDB6F000EDD6F9C
:1010E000020EDF6F000EDE6F76EF08F0DCA17BEF03
:1010F00008F07DEF08F076EF08F07FEF08F01200BF
:10110000000E3901C06F000EC16F000EC26F000EDD
:10111000C36F000EC46F000EC56F000EC66F000EC9
:10112000C76F1200D0EC08F080EC08F077EC07F005
:1011300069EC08F0A5EC07F04FEC08F000EC08F0C3
:1011400012003E01F8A1A7EF08F0AAEF08F0010E87
:10115000ABEF08F0000EADEF08F012003E01F051C9
:101160004C6E4B6AEF514B24496E000E4C204A6E78
:10117000BAEF08F01200496E600027F1F1FE3E015F
:10118000F88FF88112003F01BB91C7EF08F0120001
:101190003F01BB81CCEF08F012003E01F891120034
:1011A0003F01D29B12003E01F89D1200010203553F
:0111B00055E9
:020000040020DA
:10000000FF0FFF0FFF0FFF0FFF0FFF0FFF0FFF0F80
:020000040030CA
:0A000000AAFFF7DF9FFFFFDFFFFFFD
:00000001FF
